{
  "contractName": "MyContract",
  "abi": [
    {
      "inputs": [],
      "payable": false,
      "stateMutability": "nonpayable",
      "type": "constructor",
      "signature": "constructor"
    },
    {
      "constant": true,
      "inputs": [
        {
          "name": "hashed",
          "type": "bytes32"
        },
        {
          "name": "signature",
          "type": "bytes"
        }
      ],
      "name": "computeRecoveryAddress",
      "outputs": [
        {
          "name": "",
          "type": "address"
        }
      ],
      "payable": false,
      "stateMutability": "pure",
      "type": "function",
      "signature": "0xfe817446"
    }
  ],
  "bytecode": "0x608060405234801561001057600080fd5b506102d4806100206000396000f3fe608060405234801561001057600080fd5b5060043610610048576000357c010000000000000000000000000000000000000000000000000000000090048063fe8174461461004d575b600080fd5b6101106004803603604081101561006357600080fd5b81019080803590602001909291908035906020019064010000000081111561008a57600080fd5b82018360208201111561009c57600080fd5b803590602001918460018302840111640100000000831117156100be57600080fd5b91908080601f016020809104026020016040519081016040528093929190818152602001838380828437600081840152601f19601f820116905080830192505050505050509192919290505050610152565b604051808273ffffffffffffffffffffffffffffffffffffffff1673ffffffffffffffffffffffffffffffffffffffff16815260200191505060405180910390f35b60006101666101608461016e565b836101c6565b905092915050565b60008160405160200180807f19457468657265756d205369676e6564204d6573736167653a0a333200000000815250601c01828152602001915050604051602081830303815290604052805190602001209050919050565b60008060008060418551146101e157600093505050506102a2565b6020850151925060408501519150606085015160001a9050601b8160ff16101561020c57601b810190505b601b8160ff16141580156102245750601c8160ff1614155b1561023557600093505050506102a2565b60018682858560405160008152602001604052604051808581526020018460ff1660ff1681526020018381526020018281526020019450505050506020604051602081039080840390855afa158015610292573d6000803e3d6000fd5b5050506020604051035193505050505b9291505056fea165627a7a7230582038f9265d8e2d25ca9390f402125833a173013db651cbc4624c0c413135e289090029",
  "source": "pragma solidity 0.5.7;\n\nimport \"openzeppelin-solidity/contracts/cryptography/ECDSA.sol\";\n\n\ncontract MyContract {\n    constructor() public {\n\n    }\n\n    function computeRecoveryAddress(bytes32 hashed, bytes memory signature) public pure returns (address) {\n        return ECDSA.recover(ECDSA.toEthSignedMessageHash(hashed), signature);\n    }\n\n}\n",
  "sourcePath": "/home/julian/betx/bitski-ecdsa/contracts/MyContract.sol",
  "compiler": {
    "name": "solc",
    "version": "0.5.7+commit.6da8b019.Emscripten.clang"
  },
  "schemaVersion": "3.0.6",
  "updatedAt": "2019-03-29T16:48:26.863Z",
  "devdoc": {
    "methods": {}
  },
  "userdoc": {
    "methods": {}
  }
}