{
  "contractName": "MyContract",
  "abi": [
    {
      "inputs": [],
      "payable": false,
      "stateMutability": "nonpayable",
      "type": "constructor",
      "signature": "constructor"
    },
    {
      "constant": true,
      "inputs": [
        {
          "name": "hashed",
          "type": "bytes32"
        },
        {
          "name": "signature",
          "type": "bytes"
        }
      ],
      "name": "computeRecoveryAddress",
      "outputs": [
        {
          "name": "",
          "type": "address"
        }
      ],
      "payable": false,
      "stateMutability": "pure",
      "type": "function",
      "signature": "0xfe817446"
    },
    {
      "constant": true,
      "inputs": [
        {
          "components": [
            {
              "name": "marketHash",
              "type": "bytes32"
            },
            {
              "name": "totalBetSize",
              "type": "uint256"
            },
            {
              "name": "percentageOdds",
              "type": "uint256"
            },
            {
              "name": "expiry",
              "type": "uint256"
            },
            {
              "name": "oracleFee",
              "type": "uint256"
            },
            {
              "name": "relayerMakerFee",
              "type": "uint256"
            },
            {
              "name": "relayerTakerFee",
              "type": "uint256"
            },
            {
              "name": "salt",
              "type": "uint256"
            },
            {
              "name": "maker",
              "type": "address"
            },
            {
              "name": "relayer",
              "type": "address"
            },
            {
              "name": "isMakerBettingOutcomeOne",
              "type": "bool"
            }
          ],
          "name": "makerOrder",
          "type": "tuple"
        },
        {
          "name": "makerSig",
          "type": "bytes"
        }
      ],
      "name": "getBaseOrderStatus",
      "outputs": [
        {
          "name": "",
          "type": "address"
        }
      ],
      "payable": false,
      "stateMutability": "pure",
      "type": "function",
      "signature": "0xe8844276"
    },
    {
      "constant": true,
      "inputs": [
        {
          "components": [
            {
              "name": "marketHash",
              "type": "bytes32"
            },
            {
              "name": "totalBetSize",
              "type": "uint256"
            },
            {
              "name": "percentageOdds",
              "type": "uint256"
            },
            {
              "name": "expiry",
              "type": "uint256"
            },
            {
              "name": "oracleFee",
              "type": "uint256"
            },
            {
              "name": "relayerMakerFee",
              "type": "uint256"
            },
            {
              "name": "relayerTakerFee",
              "type": "uint256"
            },
            {
              "name": "salt",
              "type": "uint256"
            },
            {
              "name": "maker",
              "type": "address"
            },
            {
              "name": "relayer",
              "type": "address"
            },
            {
              "name": "isMakerBettingOutcomeOne",
              "type": "bool"
            }
          ],
          "name": "makerOrder",
          "type": "tuple"
        }
      ],
      "name": "getHash",
      "outputs": [
        {
          "name": "",
          "type": "bytes32"
        }
      ],
      "payable": false,
      "stateMutability": "pure",
      "type": "function",
      "signature": "0x37824f67"
    },
    {
      "constant": true,
      "inputs": [],
      "name": "getEnum",
      "outputs": [
        {
          "components": [
            {
              "name": "outcome",
              "type": "uint8"
            },
            {
              "name": "voteOption",
              "type": "uint8"
            },
            {
              "name": "hello",
              "type": "uint256"
            }
          ],
          "name": "",
          "type": "tuple"
        }
      ],
      "payable": false,
      "stateMutability": "pure",
      "type": "function",
      "signature": "0xf0ebce5a"
    }
  ],
  "bytecode": "0x608060405234801561001057600080fd5b50610b61806100206000396000f3fe608060405234801561001057600080fd5b5060043610610069576000357c01000000000000000000000000000000000000000000000000000000009004806337824f671461006e578063e88442761461009e578063f0ebce5a146100ce578063fe817446146100ec575b600080fd5b610088600480360361008391908101906105dd565b61011c565b604051610095919061089b565b60405180910390f35b6100b860048036036100b39190810190610607565b61012e565b6040516100c59190610880565b60405180910390f35b6100d6610180565b6040516100e391906108fb565b60405180910390f35b61010660048036036101019190810190610589565b6101c1565b6040516101139190610880565b60405180910390f35b6000610127826101dd565b9050919050565b6000801515610146838561025090919063ffffffff16565b15151415610175576000610159846101dd565b905061016d610167826102ac565b846102dc565b91505061017a565b600090505b92915050565b6101886103a6565b6040518060600160405280600160028111156101a057fe5b8152602001600260038111156101b257fe5b81526020016000815250905090565b60006101d56101cf846102ac565b836102dc565b905092915050565b6000816000015182602001518360400151846060015185608001518660a001518760c001518860e001518961010001518a61012001518b61014001516040516020016102339b9a99989796959493929190610795565b604051602081830303815290604052805190602001209050919050565b60008061025c846101dd565b905083610100015173ffffffffffffffffffffffffffffffffffffffff1661028c610286836102ac565b856102dc565b73ffffffffffffffffffffffffffffffffffffffff161491505092915050565b6000816040516020016102bf919061085a565b604051602081830303815290604052805190602001209050919050565b60008060008060418551146102f757600093505050506103a0565b6020850151925060408501519150606085015160001a9050601b8160ff16101561032257601b810190505b601b8160ff161415801561033a5750601c8160ff1614155b1561034b57600093505050506103a0565b6001868285856040516000815260200160405260405161036e94939291906108b6565b6020604051602081039080840390855afa158015610390573d6000803e3d6000fd5b5050506020604051035193505050505b92915050565b6040518060600160405280600060028111156103be57fe5b8152602001600060038111156103d057fe5b8152602001600081525090565b60006103e98235610a01565b905092915050565b60006103fd8235610a13565b905092915050565b60006104118235610a1f565b905092915050565b600082601f83011261042a57600080fd5b813561043d61043882610943565b610916565b9150808252602083016020830185838301111561045957600080fd5b610464838284610a77565b50505092915050565b6000610160828403121561048057600080fd5b61048b610160610916565b9050600061049b84828501610405565b60008301525060206104af84828501610575565b60208301525060406104c384828501610575565b60408301525060606104d784828501610575565b60608301525060806104eb84828501610575565b60808301525060a06104ff84828501610575565b60a08301525060c061051384828501610575565b60c08301525060e061052784828501610575565b60e08301525061010061053c848285016103dd565b61010083015250610120610552848285016103dd565b61012083015250610140610568848285016103f1565b6101408301525092915050565b60006105818235610a49565b905092915050565b6000806040838503121561059c57600080fd5b60006105aa85828601610405565b925050602083013567ffffffffffffffff8111156105c757600080fd5b6105d385828601610419565b9150509250929050565b600061016082840312156105f057600080fd5b60006105fe8482850161046d565b91505092915050565b600080610180838503121561061b57600080fd5b60006106298582860161046d565b92505061016083013567ffffffffffffffff81111561064757600080fd5b61065385828601610419565b9150509250929050565b6106668161097a565b82525050565b61067d6106788261097a565b610a86565b82525050565b61069461068f8261098c565b610a98565b82525050565b6106a381610998565b82525050565b6106ba6106b582610998565b610aaa565b82525050565b6106c981610a53565b82525050565b6106d881610a65565b82525050565b60006106eb601c8361096f565b91507f19457468657265756d205369676e6564204d6573736167653a0a3332000000006000830152601c82019050919050565b60608201600082015161073460008501826106c0565b50602082015161074760208501826106cf565b50604082015161075a6040850182610760565b50505050565b610769816109ea565b82525050565b61078061077b826109ea565b610ac6565b82525050565b61078f816109f4565b82525050565b60006107a1828e6106a9565b6020820191506107b1828d61076f565b6020820191506107c1828c61076f565b6020820191506107d1828b61076f565b6020820191506107e1828a61076f565b6020820191506107f1828961076f565b602082019150610801828861076f565b602082019150610811828761076f565b602082019150610821828661066c565b601482019150610831828561066c565b6014820191506108418284610683565b6001820191508190509c9b505050505050505050505050565b6000610865826106de565b915061087182846106a9565b60208201915081905092915050565b6000602082019050610895600083018461065d565b92915050565b60006020820190506108b0600083018461069a565b92915050565b60006080820190506108cb600083018761069a565b6108d86020830186610786565b6108e5604083018561069a565b6108f2606083018461069a565b95945050505050565b6000606082019050610910600083018461071e565b92915050565b6000604051905081810181811067ffffffffffffffff8211171561093957600080fd5b8060405250919050565b600067ffffffffffffffff82111561095a57600080fd5b601f19601f8301169050602081019050919050565b600081905092915050565b6000610985826109ca565b9050919050565b60008115159050919050565b6000819050919050565b6000600382106109ae57fe5b819050919050565b6000600482106109c257fe5b819050919050565b600073ffffffffffffffffffffffffffffffffffffffff82169050919050565b6000819050919050565b600060ff82169050919050565b6000610a0c82610a29565b9050919050565b60008115159050919050565b6000819050919050565b600073ffffffffffffffffffffffffffffffffffffffff82169050919050565b6000819050919050565b6000610a5e826109a2565b9050919050565b6000610a70826109b6565b9050919050565b82818337600083830152505050565b6000610a9182610ab4565b9050919050565b6000610aa382610ad0565b9050919050565b6000819050919050565b6000610abf82610b0e565b9050919050565b6000819050919050565b6000610adb82610ae2565b9050919050565b60007f010000000000000000000000000000000000000000000000000000000000000082029050919050565b60006c010000000000000000000000008202905091905056fea265627a7a7230582084a48a7f0248810f889788926711885f458ef1ec2d9bd645ba29c9e832af08f76c6578706572696d656e74616cf50037",
  "source": "pragma solidity 0.5.7;\npragma experimental ABIEncoderV2;\n\nimport \"openzeppelin-solidity/contracts/cryptography/ECDSA.sol\";\nimport \"./LibOrder.sol\";\n\n\ncontract MyContract {\n    using LibOrder for LibOrder.Order;\n\n    constructor() public {\n\n    }\n\n    enum Outcome {VOID, OUTCOME_ONE, OUTCOME_TWO}\n    enum VoteOption {MISSED, OUTCOME_ONE, OUTCOME_TWO, VOID}\n\n    struct TestStruct {\n        Outcome outcome;\n        VoteOption voteOption;\n        uint256 hello;\n    }\n\n    function computeRecoveryAddress(bytes32 hashed, bytes memory signature) public pure returns (address) {\n        return ECDSA.recover(ECDSA.toEthSignedMessageHash(hashed), signature);\n    }\n\n    /// @notice Gets the \"base\" status of an order without considering any token \n    ///         allowances and balances.\n    /// @param makerOrder A maker order.\n    /// @param makerSig The signature of the maker on this order.\n    /// @return A string representing the status. \"OK\" for valid.\n    function getBaseOrderStatus( // solhint-disable-line code-complexity\n        LibOrder.Order memory makerOrder,\n        bytes memory makerSig\n    ) \n        public\n        pure\n        returns (address)\n    {\n        if (makerOrder.checkSignature(makerSig) == false) {\n            bytes32 orderHash = makerOrder.getOrderHash();\n            return ECDSA.recover(ECDSA.toEthSignedMessageHash(orderHash), makerSig);\n        }\n        return 0x0000000000000000000000000000000000000000;\n    }\n\n    function getHash(LibOrder.Order memory makerOrder)\n        public\n        pure\n        returns (bytes32)\n    {\n        return makerOrder.getOrderHash();\n    }\n\n    function getEnum()\n        public\n        pure\n        returns (TestStruct memory)\n    {\n        return TestStruct({\n            outcome: Outcome.OUTCOME_ONE,\n            voteOption: VoteOption.OUTCOME_TWO,\n            hello: 0\n        });\n    }\n\n}\n",
  "sourcePath": "/home/julian/betx/bitski-ecdsa/contracts/MyContract.sol",
  "compiler": {
    "name": "solc",
    "version": "0.5.7+commit.6da8b019.Emscripten.clang"
  },
  "schemaVersion": "3.0.6",
  "updatedAt": "2019-04-05T18:16:10.554Z",
  "devdoc": {
    "methods": {
      "getBaseOrderStatus((bytes32,uint256,uint256,uint256,uint256,uint256,uint256,uint256,address,address,bool),bytes)": {
        "params": {
          "makerOrder": "A maker order.",
          "makerSig": "The signature of the maker on this order."
        },
        "return": "A string representing the status. \"OK\" for valid."
      }
    }
  },
  "userdoc": {
    "methods": {
      "getBaseOrderStatus((bytes32,uint256,uint256,uint256,uint256,uint256,uint256,uint256,address,address,bool),bytes)": {
        "notice": "Gets the \"base\" status of an order without considering any token          allowances and balances."
      }
    }
  }
}