{
  "contractName": "MyContract",
  "abi": [
    {
      "inputs": [],
      "payable": false,
      "stateMutability": "nonpayable",
      "type": "constructor",
      "signature": "constructor"
    },
    {
      "constant": true,
      "inputs": [
        {
          "name": "hashed",
          "type": "bytes32"
        },
        {
          "name": "signature",
          "type": "bytes"
        }
      ],
      "name": "computeRecoveryAddress",
      "outputs": [
        {
          "name": "",
          "type": "address"
        }
      ],
      "payable": false,
      "stateMutability": "pure",
      "type": "function",
      "signature": "0xfe817446"
    },
    {
      "constant": true,
      "inputs": [
        {
          "components": [
            {
              "name": "marketHash",
              "type": "bytes32"
            },
            {
              "name": "totalBetSize",
              "type": "uint256"
            },
            {
              "name": "percentageOdds",
              "type": "uint256"
            },
            {
              "name": "expiry",
              "type": "uint256"
            },
            {
              "name": "oracleFee",
              "type": "uint256"
            },
            {
              "name": "relayerMakerFee",
              "type": "uint256"
            },
            {
              "name": "relayerTakerFee",
              "type": "uint256"
            },
            {
              "name": "salt",
              "type": "uint256"
            },
            {
              "name": "maker",
              "type": "address"
            },
            {
              "name": "relayer",
              "type": "address"
            },
            {
              "name": "isMakerBettingOutcomeOne",
              "type": "bool"
            }
          ],
          "name": "makerOrder",
          "type": "tuple"
        },
        {
          "name": "makerSig",
          "type": "bytes"
        }
      ],
      "name": "getBaseOrderStatus",
      "outputs": [
        {
          "name": "",
          "type": "address"
        }
      ],
      "payable": false,
      "stateMutability": "pure",
      "type": "function",
      "signature": "0xe8844276"
    },
    {
      "constant": true,
      "inputs": [
        {
          "components": [
            {
              "name": "marketHash",
              "type": "bytes32"
            },
            {
              "name": "totalBetSize",
              "type": "uint256"
            },
            {
              "name": "percentageOdds",
              "type": "uint256"
            },
            {
              "name": "expiry",
              "type": "uint256"
            },
            {
              "name": "oracleFee",
              "type": "uint256"
            },
            {
              "name": "relayerMakerFee",
              "type": "uint256"
            },
            {
              "name": "relayerTakerFee",
              "type": "uint256"
            },
            {
              "name": "salt",
              "type": "uint256"
            },
            {
              "name": "maker",
              "type": "address"
            },
            {
              "name": "relayer",
              "type": "address"
            },
            {
              "name": "isMakerBettingOutcomeOne",
              "type": "bool"
            }
          ],
          "name": "makerOrder",
          "type": "tuple"
        }
      ],
      "name": "getHash",
      "outputs": [
        {
          "name": "",
          "type": "bytes32"
        }
      ],
      "payable": false,
      "stateMutability": "pure",
      "type": "function",
      "signature": "0x37824f67"
    }
  ],
  "bytecode": "0x608060405234801561001057600080fd5b506109ea806100206000396000f3fe608060405234801561001057600080fd5b506004361061005e576000357c01000000000000000000000000000000000000000000000000000000009004806337824f6714610063578063e884427614610093578063fe817446146100c3575b600080fd5b61007d6004803603610078919081019061053c565b6100f3565b60405161008a919061078b565b60405180910390f35b6100ad60048036036100a89190810190610566565b610105565b6040516100ba9190610770565b60405180910390f35b6100dd60048036036100d891908101906104e8565b610157565b6040516100ea9190610770565b60405180910390f35b60006100fe82610173565b9050919050565b600080151561011d83856101e690919063ffffffff16565b1515141561014c57600061013084610173565b905061014461013e82610242565b84610272565b915050610151565b600090505b92915050565b600061016b61016584610242565b83610272565b905092915050565b6000816000015182602001518360400151846060015185608001518660a001518760c001518860e001518961010001518a61012001518b61014001516040516020016101c99b9a99989796959493929190610685565b604051602081830303815290604052805190602001209050919050565b6000806101f284610173565b905083610100015173ffffffffffffffffffffffffffffffffffffffff1661022261021c83610242565b85610272565b73ffffffffffffffffffffffffffffffffffffffff161491505092915050565b600081604051602001610255919061074a565b604051602081830303815290604052805190602001209050919050565b600080600080604185511461028d5760009350505050610336565b6020850151925060408501519150606085015160001a9050601b8160ff1610156102b857601b810190505b601b8160ff16141580156102d05750601c8160ff1614155b156102e15760009350505050610336565b6001868285856040516000815260200160405260405161030494939291906107a6565b6020604051602081039080840390855afa158015610326573d6000803e3d6000fd5b5050506020604051035193505050505b92915050565b600061034882356108ae565b905092915050565b600061035c82356108c0565b905092915050565b600061037082356108cc565b905092915050565b600082601f83011261038957600080fd5b813561039c61039782610818565b6107eb565b915080825260208301602083018583830111156103b857600080fd5b6103c3838284610900565b50505092915050565b600061016082840312156103df57600080fd5b6103ea6101606107eb565b905060006103fa84828501610364565b600083015250602061040e848285016104d4565b6020830152506040610422848285016104d4565b6040830152506060610436848285016104d4565b606083015250608061044a848285016104d4565b60808301525060a061045e848285016104d4565b60a08301525060c0610472848285016104d4565b60c08301525060e0610486848285016104d4565b60e08301525061010061049b8482850161033c565b610100830152506101206104b18482850161033c565b610120830152506101406104c784828501610350565b6101408301525092915050565b60006104e082356108f6565b905092915050565b600080604083850312156104fb57600080fd5b600061050985828601610364565b925050602083013567ffffffffffffffff81111561052657600080fd5b61053285828601610378565b9150509250929050565b6000610160828403121561054f57600080fd5b600061055d848285016103cc565b91505092915050565b600080610180838503121561057a57600080fd5b6000610588858286016103cc565b92505061016083013567ffffffffffffffff8111156105a657600080fd5b6105b285828601610378565b9150509250929050565b6105c58161084f565b82525050565b6105dc6105d78261084f565b61090f565b82525050565b6105f36105ee82610861565b610921565b82525050565b6106028161086d565b82525050565b6106196106148261086d565b610933565b82525050565b600061062c601c83610844565b91507f19457468657265756d205369676e6564204d6573736167653a0a3332000000006000830152601c82019050919050565b61067061066b82610897565b61094f565b82525050565b61067f816108a1565b82525050565b6000610691828e610608565b6020820191506106a1828d61065f565b6020820191506106b1828c61065f565b6020820191506106c1828b61065f565b6020820191506106d1828a61065f565b6020820191506106e1828961065f565b6020820191506106f1828861065f565b602082019150610701828761065f565b60208201915061071182866105cb565b60148201915061072182856105cb565b60148201915061073182846105e2565b6001820191508190509c9b505050505050505050505050565b60006107558261061f565b91506107618284610608565b60208201915081905092915050565b600060208201905061078560008301846105bc565b92915050565b60006020820190506107a060008301846105f9565b92915050565b60006080820190506107bb60008301876105f9565b6107c86020830186610676565b6107d560408301856105f9565b6107e260608301846105f9565b95945050505050565b6000604051905081810181811067ffffffffffffffff8211171561080e57600080fd5b8060405250919050565b600067ffffffffffffffff82111561082f57600080fd5b601f19601f8301169050602081019050919050565b600081905092915050565b600061085a82610877565b9050919050565b60008115159050919050565b6000819050919050565b600073ffffffffffffffffffffffffffffffffffffffff82169050919050565b6000819050919050565b600060ff82169050919050565b60006108b9826108d6565b9050919050565b60008115159050919050565b6000819050919050565b600073ffffffffffffffffffffffffffffffffffffffff82169050919050565b6000819050919050565b82818337600083830152505050565b600061091a8261093d565b9050919050565b600061092c82610959565b9050919050565b6000819050919050565b600061094882610997565b9050919050565b6000819050919050565b60006109648261096b565b9050919050565b60007f010000000000000000000000000000000000000000000000000000000000000082029050919050565b60006c010000000000000000000000008202905091905056fea265627a7a723058204b373a6f34e8fdaac4e3565402b7e2d448b8488e07a0b11ae35ada543242ba756c6578706572696d656e74616cf50037",
  "source": "pragma solidity 0.5.7;\npragma experimental ABIEncoderV2;\n\nimport \"openzeppelin-solidity/contracts/cryptography/ECDSA.sol\";\nimport \"./LibOrder.sol\";\n\n\ncontract MyContract {\n    using LibOrder for LibOrder.Order;\n\n    constructor() public {\n\n    }\n\n    function computeRecoveryAddress(bytes32 hashed, bytes memory signature) public pure returns (address) {\n        return ECDSA.recover(ECDSA.toEthSignedMessageHash(hashed), signature);\n    }\n\n    /// @notice Gets the \"base\" status of an order without considering any token \n    ///         allowances and balances.\n    /// @param makerOrder A maker order.\n    /// @param makerSig The signature of the maker on this order.\n    /// @return A string representing the status. \"OK\" for valid.\n    function getBaseOrderStatus( // solhint-disable-line code-complexity\n        LibOrder.Order memory makerOrder,\n        bytes memory makerSig\n    ) \n        public\n        pure\n        returns (address)\n    {\n        if (makerOrder.checkSignature(makerSig) == false) {\n            bytes32 orderHash = makerOrder.getOrderHash();\n            return ECDSA.recover(ECDSA.toEthSignedMessageHash(orderHash), makerSig);\n        }\n        return 0x0000000000000000000000000000000000000000;\n    }\n\n    function getHash(LibOrder.Order memory makerOrder)\n        public\n        pure\n        returns (bytes32)\n    {\n        return makerOrder.getOrderHash();\n    }\n\n}\n",
  "sourcePath": "/home/julian/betx/bitski-ecdsa/contracts/MyContract.sol",
  "compiler": {
    "name": "solc",
    "version": "0.5.7+commit.6da8b019.Emscripten.clang"
  },
  "schemaVersion": "3.0.6",
  "updatedAt": "2019-04-01T17:45:42.852Z",
  "devdoc": {
    "methods": {
      "getBaseOrderStatus((bytes32,uint256,uint256,uint256,uint256,uint256,uint256,uint256,address,address,bool),bytes)": {
        "params": {
          "makerOrder": "A maker order.",
          "makerSig": "The signature of the maker on this order."
        },
        "return": "A string representing the status. \"OK\" for valid."
      }
    }
  },
  "userdoc": {
    "methods": {
      "getBaseOrderStatus((bytes32,uint256,uint256,uint256,uint256,uint256,uint256,uint256,address,address,bool),bytes)": {
        "notice": "Gets the \"base\" status of an order without considering any token          allowances and balances."
      }
    }
  }
}